:020000040800F2
:1000000060070020CD4400080142000803420008B8
:1000100005420008074200080942000800000000ED
:100020000000000000000000000000000B4200087B
:100030000D420008000000000F42000811420008B5
:10004000E5440008E9440008ED440008F1440008D4
:10005000F5440008F9440008FD4400080145000883
:1000600005450008094500080D4500081145000830
:1000700015450008194500081D45000821450008E0
:1000800025450008294500082D450008000000000E
:1000900000000000000000000000000031450008E2
:1000A00035450008394500083D4500084145000830
:1000B0001542000845450008494500084D4500081F
:1000C0005145000855450008594500085D450008A0
:1000D00061450008CF4200086545000800000000A7
:1000E000694500086D4500087145000800000000E2
:1000F000000000000000000000000000754500083E
:1001000000000000794500087D4500088145000891
:1001100000000000000000000000000000000000DF
:1001200085450008894500088D450008914500086F
:1001300095450008000000000000000000000000DD
:1001400000000000000000000000000099450008C9
:100150009D450008A1450008A5450008A9450008DF
:10016000AD450008B1450008000000000000000097
:10017000000000000000000000000000000000007F
:1001800000000000B545000800000000000000006D
:10019000B9450008BD45000840F0200070472DE932
:1001A000F14FB0B0924604910DF142013A9A2B9171
:1001B00099464A7000200AE01AF8011B0498309A08
:1001C00090470028049000F043860D98401C0D9045
:1001D0009AF8000050B12528EED1002200210792A4
:1001E000089109920A910B920C9104E00D9800F08D
:1001F00031BE41F001011AF8010F2028F9D023285F
:100200000CD02B2804D02D2805D0302809D00BE0A5
:1002100041F00201EFE741F00401ECE741F0080191
:10022000E9E741F01001E6E72A280FD1D9F80020CC
:1002300052F8040BC9F8002000280F9003D5404263
:100240000F9041F004010AF1010A14E00F92DFF867
:100250000C0C0AE00F9C844205DA04EB840302EBE9
:100260004302303A0F920AF1010A9AF80020A2F1F3
:1002700030030A2BEED39AF800202E2A03D04FF039
:10028000FF300E9029E01AF8010F2A2809D1D9F879
:10029000002052F8040BC9F800200E900AF1010A60
:1002A0001BE02D280CBF0AF1010A002000220E924B
:1002B000DFF8A85B0BE040B90E9BAB4205DA03EB1D
:1002C000830402EB4402303A0E920AF1010A9AF8D2
:1002D0000020A2F130030A2BEDD3ADF840100FF649
:1002E00080309AF8001000F0D1FE08B11AF8010B26
:1002F0008DF842009DF84200682805D19AF8001058
:1003000068290CD1622006E06C2804BF9AF800101E
:100310006C2904D171208DF842000AF1010A12AA59
:1003200006921AF801BBBBF125002CD01C3800F056
:100330009781001F022840F29381133800F0BA849D
:10034000093800F08D81801E00F04F85401E00F0BE
:10035000FC84401E022840F28381001F00F0F584D7
:10036000401F00F0F280401E00F0A484401E00F008
:10037000DA80C01E0ED0801E00F09C84C01E00F0EB
:10038000998400F03DBD0122252107928DF8481087
:1003900000F042BDD9F8000050F8044BC9F8000045
:1003A000002C059440F0AB802B994878002800F091
:1003B000A1804FF0FF340FF6B02000F07FFE241A2A
:1003C00040F0468500F028BD01236A4602A9304668
:1003D00000F00CFE002840F03B85641EF4D13096FE
:1003E000079C12AE74B1309F16F8011B0498B847F1
:1003F0000028049000F02C850D98401C641E0D9080
:10040000F2D130970A9C3021002C8DF800100CDDC1
:10041000309E01236A4602A9304600F0E7FD00281D
:1004200040F01685641EF4D13096059E089C74B188
:10043000309F16F8011B0498B8470028049000F07C
:1004400007850D98401C641E0D90F2D130970B9CCF
:100450003021002C8DF800100CDD309E01236A46FF
:1004600002A9304600F0C2FD002840F0F184641E6D
:10047000F4D1309605980899099C461874B1309FBC
:1004800016F8011B0498B8470028049000F0E08497
:100490000D98401C641E0D90F2D130970C9C3021B9
:1004A000002C8DF800100CDD309E01236A4602A955
:1004B000304600F09BFD002840F0CA84641EF4D151
:1004C00030969DF8400041077FF582AE2020002D38
:1004D0008DF800007FF77CAE309C01236A4602A9AC
:1004E000204600F083FD002840F0B2846D1EF4D158
:1004F00030946DE60FF65430059000F08DBC0E9DE3
:10050000002D04D5204600F0F9FD044608E02A46F7
:100510000021204600F0FCFD002814BF041B2C46DF
:10052000089400F079BCD9F8001051F8040BC9F810
:10053000001020F00002002121F0FF33CDE902235A
:1005400012AC0594782100F04CBC2B99487820B16E
:100550004FF0FF340FF6C4202FE79DF842006228C9
:1005600060D0682817D06A283FD06C2806D0712840
:1005700047D074282CD07A281DD062E0D9F800101A
:1005800051F8040BC9F80010002866D14FF0FF3471
:100590000FF6A02011E7D9F8001051F8040BC9F8A4
:1005A000001020B94FF0FF340FF6882005E70D99B1
:1005B000018000F031BCD9F8001051F8040BC9F8E3
:1005C0000010002849D14FF0FF340FF66820F4E600
:1005D000D9F8001051F8040BC9F8001000283CD1DC
:1005E0004FF0FF340FF64C20E7E6D9F8001051F831
:1005F000040BC9F8001080B94FF0FF340FF6342017
:10060000DBE6D9F8001051F8040BC9F8001020B946
:100610004FF0FF340FF61C20CFE60D9AD317C0E938
:100620000023F9E3D9F8001051F8040BC9F80010C1
:1006300020B94FF0FF340FF6FC10BEE60D990170A3
:10064000EAE3D9F8001051F8040BC9F8001020B9FA
:100650004FF0FF340FF6DC10AFE60D990160DBE3DD
:100660009DF842004C2807BFD9F80010CA1DD9F8E0
:100670000000C21D22F00702C9F80020D2E90001E3
:100680000832C9F80020CDE90201C80F02D007984E
:100690002D210AE0BDF84010880702D507982B21CC
:1006A00003E0C80705D50798202112AA1154401C61
:1006B000079012A807994BF0200300EB010CDDE92D
:1006C0000201CDE92C01612BCDF814C021AC0BD077
:1006D0000E98002848BF062105D404BF4BF0200027
:1006E000672801D101210E91DDE902677B0043EA11
:1006F000D6735A15DB174FF0FF30834208BF824292
:1007000010D13F0347EA16573603002F08BF002ECB
:1007100008D0ABF1610503211A2D089118D30FF60B
:10072000341110E0DDE902014A00521512F1010F07
:1007300011D108030FD1ABF1610503211A2D0891E6
:100740001FD30FF618110322604600F00DFD63E37E
:100750000FF6FC01F7E7DDE902016A4600F058FDFB
:10076000CDE902014BF02000612811D1059830221B
:100770000270811C0591BBF1610F0CBF78215821DB
:1007800002E00FF6D401DEE741700798801C079065
:10079000DDE9020120F0000231F0004308BF002A29
:1007A00002D10026002542E14BF02008B8F1610F8C
:1007B00040F093800E98002847BF21210191401CF2
:1007C0000190019EDDE92C01761C00220023DDE969
:1007D000024500F055FD38BF85F0004500988DF8C2
:1007E0008420001F002E00900DF1850732DD204689
:1007F00029460022002300F05DFD2BD21C2200F0D0
:1008000073FD04460D4600F00DFEF61F002E8046D7
:1008100009DD00F023FE02460B462046294600F083
:10082000E5FE04460D46F81D0721B8F1000F0CDD6A
:10083000491E5EBF08F00F0200F8012D4FEA28188C
:10084000F3D502E0002200F8012D491EFAD5C71D9C
:10085000002ECCDC0DF185003F1A01980DF18504C6
:100860003E468742C8BF0646002E2FD4BE4206DA57
:100870000DF18500815D0829A8BF0F2000DA002056
:10088000324621A98D1800E0761E15F80139521E56
:100890008342F9D00F2804D10DF18501885C401CFA
:1008A0008854002A04D50098001D21AC761C0090C5
:1008B000701E0BD421180B783033DAB23A2AA4BF59
:1008C0005B443A3B401E01F80139F4D50E990029EA
:1008D00040F1AC80701E0E90A8E00099DFF8FC2675
:1008E00047F29750414391FBF2F20092DDE92C452B
:1008F000C2F10702002A25F0004504DD2046294602
:1009000000F049FB0BE052420020DFF8D41600F063
:1009100042FB02460B462046294600F0D9FE04461B
:100920000D46B8F1660F06BF009E0A3606260E98E1
:100930003618142EC8BF142630208DF884000DF10F
:100940008507002E34DD2046294600F0E5FF0146EC
:100950000A4607F1080C04200A27B2FBF7FE0EEB4B
:100960008E03A2EB430230320CF8012C0A22BEFBAC
:10097000F2F202EB8203AEEB43033033401E0CF87D
:10098000023DE9D1083E002E0CF10807D9DD0846EA
:1009900000F0D4FF02460B462046294600F026FE12
:1009A0000022DFF8403600F0D7FF04460D46CAE7C4
:1009B0000DF185003F1A0DF1850404E00098401EFA
:1009C0007F1E0090641C20783028F7D0B8F1660FA5
:1009D00002D1009E761C04E0B8F1650F0CBF012621
:1009E00000260E983618B742B8BF7E1E002E1DD4C2
:1009F000BE4204DAA05D3428C8BF392000DC3020B4
:100A00003246611E8D1800E0761E15F80179521EDF
:100A10008742F9D0392802D1A05C401CA054002A9A
:100A200004D50098401C0C46761C0090009D01F0F7
:100A300069F8406A0778DDF8388030B2002802DCB7
:100A400001260FF21C644BF02000662808BF6D1CC5
:100A500016D0672845D128B210F1040F47DB404576
:100A600045DA9DF840106D1C080703D430B24045AC
:100A7000D8BF804628B2B8EB000848BF4FF0000846
:100A80000FFA85FBBBF1000F00F3B3800898411CFF
:100A90000891302205990A54B8F1000F03DC9DF843
:100AA0004010080704D50898411C089105990F5477
:100AB00018EB0B0FB8BFC8F100052DB268424544D2
:100AC00032B20B909542B8BF2E46059B089836B2BD
:100AD000099632462146184400F046FBAD1B0C95A2
:100AE000D1E0BBF1610F17D14FF0700B19E030B2BC
:100AF000404504DA9DF840100A0758BF8046B8F117
:100B0000010848BF4FF00008BBF1670F14BF4FF05A
:100B1000450B4FF0650B04E0BBF1410F08BF4FF0F0
:100B2000500B0898411C0891B8F1000F059914F872
:100B3000012B0A5403DC9DF8401008071AD50898C9
:100B4000411C0891B8F1000F05990F5412DD761E73
:100B500030B28045B8BF46460598089B32B2214660
:100B6000184400F001FB089836B230180890A8EB42
:100B700006000B9005980899014428B2002881F8D6
:100B800000B003D42B204870891C04E02D224A7049
:100B90000546891C6D4200202CAA0AE02B460A2536
:100BA00093FBF5F505EB8504A3EB440302F8013B49
:100BB000401C2DB2002DF1DC012806DC4BF0200298
:100BC000652A04BF302201F8012B00282CAB08D184
:100BD000302001F8010B06E0401E1A5C303201F8AB
:100BE000012B0028F8DC059A08981044091A09918D
:100BF00049E031B228B281421CDA059B089832B232
:100C00002146184400F0B0FA089936B271180891DC
:100C1000ABEB0600B8F1000F0B9003DC9DF8400031
:100C2000020704D5059847540999491C0991CDF844
:100C3000308028E0059B08982AB22146184400F02D
:100C400093FA0898761B5844B8F1000F089003DC1B
:100C50009DF840100A0703D5411C089105990F54CF
:100C600030B28045B8BF46460598089B32B204EBC7
:100C70000B01184400F078FA089836B23018089042
:100C8000A8EB06000B909DF8400000F0140010281F
:100C900040F0C280079A08980B99821809988A1820
:100CA00082180C980F998018884280F2B580081A33
:100CB0000A90B1E09DF84200622808D068280ED062
:100CC0006A2814D06C281FD0712810D01CE0D9F8E5
:100CD000001051F8040BC9F80010C0B21AE0D9F89E
:100CE000001051F8040BC9F8001080B212E0D9F8D6
:100CF0000000C21D22F00702C9F80020D2E900015D
:100D00000832C9F8002006E0D9F8001051F8040BA9
:100D1000C9F800100021CDE902019DF8400002074A
:100D20005AD5DDE90201002908BF002854D04BF054
:100D30002002782A50D1079912A830234354491C25
:100D40004A1C079200F801B046E09DF84200622874
:100D500008D068280ED06A2814D06C281FD07128BB
:100D600010D01CE0D9F8001051F8040BC9F800109D
:100D700040B21AE0D9F8001051F8040BC9F800107D
:100D800000B212E0D9F80000C21D22F00702C9F833
:100D90000020D2E900010832C9F8002006E0D9F8A5
:100DA000001051F8040BC9F80010C117CDE9020179
:100DB000002902D507982D220AE0BDF840008107DE
:100DC00002D507982B2203E0C00705D507982022FB
:100DD00012A90A54401C079012A8079901440591D2
:100DE000594602A800F04EF816E001200790D9F805
:100DF000001051F8040BC9F800108DF848000BE002
:100E000001222521BBF1000F07928DF8481003D075
:100E1000022007908DF849B00F9D07980A992D1A66
:100E200008986D1A0B992D1A09986D1A0C992D1A9C
:100E30009DF840006D1A41073FF5D2AA2020002DF1
:100E40008DF800007FF7CCAA309E2C46FFF7BCBA85
:100E50004FF0FF3031B0BDE8F08F0000CBCCCC0CB0
:100E6000686A6C747A4C00007072696E74665F73A5
:100E70003A2062616420257320617267756D656E2A
:100E8000740000002DE9FE4C06468B463769584633
:100E90006F2808BF082205D0FFF77EF9782814BF15
:100EA0000A221022D6E900013C2504468A46BBF1FD
:100EB000640F18BFBBF1690F04D1002902D5644249
:100EC0006AEB4A0ABAF1000F08BF002C0CD1306B54
:100ED00050B9082A3BD196F83810080737D5302189
:100EE0003B2587F83B1032E08DF800B09346204652
:100EF00051465A46002300F009FE3032D0B26D1E32
:100F00003A2801950DDA7A55204651465A46002373
:100F100000F0FCFD04465FEA010A08BF002C05D181
:100F200008E09DF800001218513AECE7F1687819D2
:100F30008142DCD3BBF1080F09D196F838000107D4
:100F400005D5785D302802D06D1E30207855C5F16A
:100F50003C02306BB26179198242F16007DA318F5D
:100F6000821A4FF6EF7001403262318710E000289C
:100F70000ED596F8380000F01400102808D1736BD5
:100F80007069316A1B1A5B1A9B1A002BC8BF336247
:100F900003B0BDE8F08C2DE9D04306460F46144659
:100FA0004FF00008DFF8409012E0E00707D5424616
:100FB0004B463046394600F0CFFC06460F464046C9
:100FC000494642464B4600F0C7FC641080468946BD
:100FD000002CEAD130463946BDE8D083A086010016
:100FE0000000F03F84D7974100002440F8B5054643
:100FF0000E4617461C4600205CB117F8011BB0686E
:10100000A847B06030B1F06A401CF0620020641E56
:10101000F3D1F2BD4FF0FF30F2BD00007072696E87
:1010200074665F733A20256E20646973616C6C6F1F
:10103000776564007072696E74663A20626164203C
:10104000256E20617267756D656E7400000000008A
:101050006E616E004E414E00696E6600494E46005C
:1010600030000EE002684368024408305FEAC37C47
:1010700044BF4B445B1E52F804CB43F804CB091F1A
:10108000F9D150F8041B0029ECD17047C9B202789D
:101090008A421AB11CBF10F8012FF9E718BF0020CF
:1010A00070478268521C8260426832B103685A1CE1
:1010B000026019704168491E4160704780B500B9EF
:1010C00006A005490B681BB122220021984701E0C8
:1010D00000F09FFD222002BD54030020636F6E7359
:1010E000747261696E742068616E646C65723A2016
:1010F000626164206D6573736167650000F10103CF
:1011000010F8011B11B110F8011BFBE7C01A704762
:10111000C9B2830706D0521E22D310F8013B994270
:10112000F7D11FE0083A13D302F1040241EA01218A
:1011300041EA014150F8043B121F21BF4B40A3F18B
:10114000013C2CEA030C1CF0803FF3D0C9B2001F15
:10115000083210F8013B521E28BF91EA030FF8D85D
:1011600018BF0120401E704762B38B0708D0521E83
:1011700011F8013B00F8013B00F024808B07F6D109
:10118000830740F0208000BF103A07D330B4B1E8A5
:101190003810103AA0E83810F9D230BC530724BFF9
:1011A000B1E80810A0E8081044BF51F8043B40F82B
:1011B000043BD20724BF31F8022B20F8022B44BF96
:1011C0000B7803707047121F17D35B0009D151F8D9
:1011D000043B20F8023B1B0C121F20F8023BF6D206
:1011E0000BE051F8043B00F8013B1B0A20F8023BDE
:1011F0001B0C121F00F8013BF3D238BF121D521E08
:1012000024BF11F8013B00F8013BF8D870472E00CD
:1012100010B5144600F002F8226010BDC1F30A5365
:1012200043B14A0012F5001F28D2A3F2FE32A1EB0F
:101230000251704750EA410C20D001F0004C31EAD5
:101240000C01B1FA81F204BFB0FA80F3D2180B3A64
:10125000B2F120032CBF00FA03F1914041EA0C01E6
:101260003EBFC2F1200C20FA0CF3194390405242C9
:1012700040F2FD33D21A01EB035170470022704750
:1012800041EA030C50EA4C0C52EA0C0C4FF4001CDF
:1012900009D307D01CEB410F9CBF1CEB430F8B42C3
:1012A00008BF824270471CEB430FFBD8994208BF2E
:1012B0009042704741EA030C50EA4C0C52EA0C0C85
:1012C0004FF4001C09D307D01CEB410F9CBF1CEB53
:1012D000430F994208BF904270471CEB410FFBD867
:1012E0008B4208BF82427047124254D440F2FF7CC6
:1012F0001CEA11530FD0634531D09B1863453CBFA6
:1013000001EB0251704701F0004141EA0C5100200D
:10131000AFF30080704750EA410320D001F0004C49
:1013200091EA0C011CD0B1FA81F30B3B9A420DD922
:10133000D21A994051EA0C01C3F1200C20FA0CFC9E
:1013400061449840531C40F2FF7CD7E7914041EA4A
:101350000C01C2F1200C20FA0CF3194390407047A5
:10136000B0FA80F31533202BE0D3202AEED3203AB5
:10137000203B9A4209D9D21A00FA03F141EA0C0142
:101380000020531C40F2FF7CB8E700FA02F141EA6A
:101390000C0100207047524240F2FF7C1CEA1153BE
:1013A0000DD06345DBD0B2EB030C3CBFA1EB025187
:1013B00070470CF1010221EA035141F4801150EA17
:1013C000410CCCD001F0004C352A27DC30B481EA46
:1013D0000C01B2F1200309DAC2F12003044601FA3C
:1013E00003F5D0402843D1409C400CE0C3F12002DB
:1013F000450020FA03F418BF44F0010421FA03F079
:1014000091400C43002174F1004550F1000051EB74
:101410000C01244230BC7FF47BAF70476146002052
:1014200076E70000C1F30A5340F21E42D31A0CDDE6
:10143000CA0283F3070342EA505242F00042DA4004
:1014400002EBE17282EAE17070476FEAE17203F247
:10145000E13008B182F000407047000010F0004118
:1014600060B148BF4042B0FA80F29040D21CC2F551
:10147000846241EA025202EBD0214005704700002D
:10148000841A71EB030604D26E40001BB14112199D
:1014900073414FF4001C1CEB410F34BF7CEB43063F
:1014A00083E00C0DA4EB1356362E00F37C80012E46
:1014B00045EAC32341DC43EA525312BFD2029202EF
:1014C0005B08240545EAC12141EA5051D2EBC02016
:1014D000994125D407D1B0FA80F610FA06F162D00E
:1014E0000020203608E0B1FA81F6B140C6F12002B2
:1014F00020FA02F21143B0404FEAF474B4EB4654C0
:1015000034F001064FEA74040AD8D6F50016760DB9
:1015100004F00044F04061FA06F25040F1404840C7
:10152000C00A40EA415021F0004128BF5FEA50055F
:1015300050F1000044EBD12135E0DB0A45EAC1213E
:10154000C90AB6F120050EDD42EA0242120CC5F1CD
:10155000200603FA06F6EB4042EA06056D42984182
:1015600061F100010DE062FA06F5F240554063FAC0
:1015700006FC82EA0C02F3405A406D42904161EB56
:10158000030111F4801F05D1641E620502D06D00B5
:101590004041494121F48011430875F1004350F165
:1015A000000041EB045170BC70471CEB410F15D299
:1015B00023F0004352EA43060BD04FEA4C0CBCEB3D
:1015C000410F04D80C0D661E342EB7DDEBE7801AF0
:1015D000994150EA410608BF0021E4E708BF1CEB2F
:1015E000430F28BF6FF00001DDE7000070B491EAFF
:1015F000030F4FF000457FF543AF6B40841A71EB4A
:10160000030603D2001BB141121973414FF4001CB1
:101610001CEB410F34BF7CEB430442E00C0DA4EB08
:101620001356352E4FDC45EAC323DB0A45EAC121B8
:10163000C912B6F120050DDD63FA05F6EB4086EA26
:101640000305124218BF45F00105C01851F1000111
:101650000CD213E062FA06F5F2405540F3415A40CD
:10166000B340F3405A408018594107D349085FEA14
:1016700030005FEA350528BF45F0010501F580110E
:10168000420875F1004250F1000041EB04514E0058
:1016900016F5001F70BC38BF70470020090D090502
:1016A00070471CEB410F10D252EA43060BD0BCEB43
:1016B000410F05D80C0DAB43661E342EB6DD02E09B
:1016C000AB438018594170BC704770BC7047000034
:1016D000F0B540F2FF7581EA030C0CF0004C15EAFE
:1016E00011541DBF15EA1357AC42AF42E5E0BC41AF
:1016F000C1F31301C3F31303801A994143F4801318
:1017000004D2641E0018494180185941C90241EAB7
:101710005051B1FBF3F603FB1611A2FB0675D7EB94
:10172000C020A94102D2761E80185941C90241EA5F
:101730005051B1FBF3FE03FB1E11A2FB0E75D7EB5C
:10174000C020A94103D2AEF1010E8018594189028F
:1017500041EA9051760546EA8E2EB1FBF3F603FB83
:101760001611A2FB0675D7EB8020A94102D2761E86
:1017700080185941C90241EA50514EEA060EB1FBA8
:10178000F3F603FB1611A2FB0675D7EBC020A941A7
:1017900002D2761E80185941C90241EA5051B1FB6C
:1017A000F3F703FB1711A2FB0735D3EBC020A941C8
:1017B00067F100070CBF004247F0010766F3D52729
:1017C0004FEA1E31B80814F5806412DDBD0775F1CB
:1017D000004250EB0E5051EB045111F5801F5CBFDD
:1017E00041EA0C01F0BD4CF07F6141F0E041002086
:1017F000F0BDBD076D0840EA0E5041F48011D4F1F0
:101800000104B4F120060ADAC4F120060200E04027
:1018100001FA06F3E1401843B24015430EE0342CC0
:1018200013DCC6F1200445EA40056D0820FA06F2F3
:10183000154321FA06F0A1400D43002175F1004245
:1018400050F1000051EB0C01F0BD00205FEA0C01EB
:10185000F0BDCFB992185B41B3FA83F704BFB2FA77
:1018600082F6BF190B3FB7F120062FBF02FA06F32D
:10187000BB40C7F1200622FA06F638BF3343BA4010
:101880001CB1E419641E33E77F4231F00041B1FA24
:1018900081F404BFB0FA80F6A4190B3CB4F1200621
:1018A0002FBF00FA06F1A140C4F1200620FA06F687
:1018B00038BF3143A0403C1B1AE7AC421ABF05EACF
:1018C0001357AF4212E050EA41061CBF52EA4306EA
:1018D000BFE750EA4107304661461CBF41EA055167
:1018E000F0BD52EA430C08BFC143F0BD00204FF4E5
:1018F000001616EB410F98BF16EB430F08BF16EB0F
:10190000410F24BFC14305E016EB430F0CBF6146F6
:101910004CEA0551F0BD0000400D40F21E4C40EA7B
:10192000C120BCEB115C40F0004003D48CF30701F4
:10193000C84070476FEAE1707047000050B1B0FADC
:1019400080F18840C91CC1F58461090501EBD021F3
:10195000400570470146704730B540F2FF7C1CEAF5
:1019600011541DBF1CEA1355644565453FE06419D9
:1019700081EA030C6FF35F530CF0004C43F48013C7
:10198000C90241F0004141EA505EC5021100A5FBC9
:10199000020200284FF00000EEFB01204FF0000192
:1019A000E3FB052118BF42F0010240180021494124
:1019B000E3FB0E01A4F580640D0302D292184041AE
:1019C000494154F1010470DD450872F1004250F1C3
:1019D000000051EB0451A1F5801102D441EA0C0141
:1019E00030BD40F2FF7E4CEA0E51002030BD0CEAC3
:1019F0001355644518BF654581EA030C0CF0004C93
:101A000041D050EA410E1CBF52EA430E02E061464B
:101A1000002030BD24422C441BD15FEA050EF6D0D5
:101A2000090302BF01460020AEF1140EB1FA81F5A0
:101A3000AEEB050401FA05FE0C35C5F1200100FAF4
:101A400005F5C8404EEA000E6FF35F5343F4801370
:101A50009CE733F00043B3FA83F504BFB2FA82FE89
:101A600075440B3D641BB5F1200E2FBF02FA0EF337
:101A7000AB40C5F1200E22FA0EFE38BF43EA0E033A
:101A8000AA40641C7CE750EA410E14BF52EA430EA0
:101A90006FF000014FF4001515EB430F8EBF194690
:101AA00015EB410F9DE7B4D830BDD4F10104B4F17A
:101AB00020050FDAC4F12005520828BF42F00102C8
:101AC00010FA05FE01FA05F57244E2BFE040284332
:101AD000E1400FE0352C9ADCC5F1200452EA4002C7
:101AE00020FA05F218BF42F0010231FA05F0A140D8
:101AF0000A43002172F1004250F1000051EB0C0149
:101B000030BD00000048704710000020D3BBD9B1A1
:101B1000B2F5803F5BD2022A1ED98C46B1FBF2F1AE
:101B200002FB11C31B0443EA1043B3FBF2FC02FBAC
:101B30001C3380B240EA0343B3FBF2F002FB1032E5
:101B400040EA0C4000237047022A05D98446B0FBC6
:101B5000F2F002FB10C270474AB105D100F0010259
:101B600049085FEA3000704700220023704700F008
:101B700053B80B000200002100207047F7D3002269
:101B800000237047904271EB030CF2D370B5B1FAA9
:101B900081F4B3FA83F52C1BA340C4F1200532FA7B
:101BA00005F63343A2405FF00046E64002E05B08E2
:101BB0005FEA3202841A71EB030524BF20462946EE
:101BC0007641F4D302000B003000002170BD70B5E7
:101BD000B1FA81F4B2FA82F5C4F120046419B4F1C7
:101BE0002006DAD3B2405FF00044F440002502E062
:101BF00052085FEA3303C61A71EB020E24BF304667
:101C0000714664416D41F3D302000B0020002900AE
:101C100070BD012000F002B87047000080B5AFF33E
:101C20000080024A11001820ABBEFBE7260002002C
:101C300038B5040001D1012032BD606A28B900F036
:101C4000A7FA05D00021E16102E000202061606177
:101C50000020A06204F15005687820B900212970A5
:101C6000204600F077FB022068702068016821F0B0
:101C7000400101606068A168E26800F4827001F4CC
:101C800004410843217C02F400621043227D01F0EC
:101C900002010843A16902F001021043227F01F40E
:101CA0000071084394F8201002F038021043A26A31
:101CB00001F080010843216802F4005210430860DB
:101CC000A06994F824202168000C00F0040002F0C0
:101CD0001002104348602168C86920F40060C861A0
:101CE0000021696001206870002032BD2DE9F843B1
:101CF00000F01CFA0C4691469846012808BF0220C5
:101D000000F097800120307000F0AEFB717801295F
:101D100018BF022540F08A80002C18BFB9F1000FCF
:101D200000F0808003217170002373603C63A7F88A
:101D30003490A7F836900021B963BB87F9877B649C
:101D40003964BB68B3F5004F09D139680B6823F0DB
:101D500040030B603B68196841F4804119603968A1
:101D60000B685C0603D40B6843F040030B604446E9
:101D7000F968B1F5006F796825D1002918BFB9F16C
:101D8000010F00F0F1F9804608E03A6B1188C1605C
:101D9000386B811C3963F88E411EF986F88E002855
:101DA00035D0386881688A07EFD400F05DFBA0EB7E
:101DB0000800A04204D314F1010FEFD0032533E053
:101DC000002CEBD1FAE7002918BFB9F1010F00F0A0
:101DD000BFF9804608E03A6B117801733A6B501CEA
:101DE0003863F98E481EF886F88E80B138688168AD
:101DF0008A07F0D400F038FBA0EB0800A04203D320
:101E000014F1010FF0D0D9E7002CEDD1D6E742460E
:101E10002146384600F049FA08B12020706000F0F1
:101E20008BF908B1012501E00120707000213170AB
:101E30002846BDE8F2832DE9F843074607F150062E
:101E4000002470780D4691469846012818BF022458
:101E50005ED17868B0F5827F04BFB86800280BD1E6
:101E60004FF0040C86F801C0CDF800804B462A469E
:101E7000384600F07DF879E03078012808BF02206C
:101E800074D00120307000F0EFFA002D18BFB9F1C6
:101E9000000F64D00421717000227260BD63A7F846
:101EA0003C90A7F83E903A63BA86FA863A647A6420
:101EB000B968B1F5004F09D139680A6822F04002CB
:101EC0000A603A68116821F480411160396800F0B5
:101ED00057F90546F968002924D108E0017BB86B61
:101EE0000170BA6B511CB963F88F411EF987F88FE6
:101EF00058B338688268D107F0D400F0B5FA401BB7
:101F0000404506D318F1010FF1D001200324707071
:101F100029E0B8F1000FEAD1F7E7C168B86B01809A
:101F200000F0FDF8F88F80B138688268D107F4D4EA
:101F300000F09AFA401B404503D318F1010FF1D08D
:101F4000E3E7B8F1000FEDD1DFE72A464146384616
:101F500000F085F908B120207060706808B1012494
:101F600001E001217170002030702046BDE8F2834D
:101F70002DE9FC4700F0DAF88A4691464FF0010857
:101F8000012808BF022000F0C8801C4686F80080A7
:101F900000F06AFA7278012A234609D07968B1F50F
:101FA000827F02BFB9680029042A01D00225B1E06E
:101FB000BAF1000F18BFB9F1000F00F0A7800CB9FB
:101FC00000F0A4B896F801C0BCF1040F1CBF4FF09C
:101FD000050E86F801E0AC46C6F804C0C7F8389094
:101FE000FC87BC87C7F830A0FC86BC863D647D6456
:101FF00039680A68540600F0C5F8F9680A9CB1F51A
:10200000006F796837D1002918BF012B00F0ACF8B8
:102010008146F88E002804BFF88F002869D03968FF
:10202000886882070FD5F88E002818BFB8F1000F16
:1020300009D03A6B1088C860A846396B881C386391
:10204000F98E481EF88639688868C20708D5F88F67
:1020500030B1C968B86B01804FF0010800F05FF83B
:1020600000F002FAA0EB0900A042D2D314F1010F54
:10207000CFD003254CE0002918BF012B00F068F8F1
:102080008146F88E002804BFF88F002831D03968C7
:10209000886882070FD5F88E002818BFB8F1000FA6
:1020A00009D0386B02780A73A846386B411C396333
:1020B000F88E411EF98639688868C2070CD5F88FFA
:1020C00050B1C868B96B08704FF00108B86B421C7A
:1020D000BA63F98F481EF88700F0C6F9A0EB090033
:1020E000A04203D314F1010FCBD0C2E7002CC8D11A
:1020F000BFE74A462146384600F0D7F818B12020FD
:102100000125706006E000F017F808B1012501E034
:1021100001207070002131702846BDE8F687B96B48
:102120008A1CBA63F88F411EF9877047074607F18A
:102130005006002530787047B86838B90021009102
:102140003968C868009089680091009A7068704783
:1021500009D13B6B39681A780A733A6B511C3963A1
:10216000FA8E511EF986704709D13B6B39681A887F
:10217000CA603A6B911C3963FA8E511EF98670471A
:102180000A68530603D40A6842F040020A607047A6
:102190006068B0F5827F70472168086820F04000D1
:1021A000086070472DE9F843089C07460E469146A3
:1021B000984600F059F9A8EB0000241800F054F9F3
:1021C000554A11684901090D61430091054605E032
:1021D000009800B900240098401E00903968886873
:1021E0003040B0420CBF01210021494534D018F1E4
:1021F000010FF3D000F038F9401BA04201D2002CAF
:10220000E6D13968486820F0E00048607868B0F5A9
:10221000827F0BD1B868B0F5004F18BFB0F5806F62
:1022200004D13968086820F040000860B86AB0F549
:10223000005F09D13868016821F4005101603968F4
:10224000086840F40050086007F150000122427015
:1022500000210170032000E00020BDE8F2831CB5DE
:1022600004460B46FFF794FF08D1A068B0F5004F75
:1022700018BFB0F5806F04D1FFF78EFFFFF788FF1E
:1022800007D1A0680092B0F5806F03D000228021B2
:1022900002E00092002201212046FFF783FF10B1E7
:1022A00000F034F816BD002016BD7CB50D4616466C
:1022B000044600962B4601220221FFF773FFB8B9AE
:1022C0001548164903681822B3FBF2F2B2FBF1F18C
:1022D0004FF47A70414300916168B1F5827F0AD171
:1022E00000962B46002280212046FFF75BFF58B165
:1022F00000F00CF876BD009830B10098401E0090B8
:10230000226891680806F6D4002076BD606D40F022
:1023100020006065032070470C00002040420F0041
:1023200081B0002000904B48416841F480414160F9
:10233000416801F4804100910021009B00910268F6
:1023400042F080520260006800F0805000900098D7
:1023500001B0704710B586B000F060F823683E49C0
:102360008B420FD100F055F841F480514161416931
:1023700001F4805100F05FF8E02000F044F80521FE
:1023800000F052F806B010BD0168B1F1804F00D0E6
:10239000704780B50020009000222E48016841F06F
:1023A000010101600021006800F0010000901C2084
:1023B000009B00F076F8BDE802401C2000F090B8C9
:1023C00010B586B000F02AF8236825498B4218D151
:1023D00000F01FF841F010014161416901F0100166
:1023E00000F029F84FF4C06000F00DF8072100F06C
:1023F0001BF800220021252000F053F8252000F0D2
:102400006FF806B010BD009902920021039101906F
:10241000704700200090134841697047044614211A
:10242000002201A800F084B803220591049201A9BA
:102430000A4800F087B800910021009B00910268D3
:1024400042F0010202600222006800F001000090E8
:102450007047000040380240003001400000024058
:10246000001001403038024001484068704700BF0A
:10247000000000200A01010002D4274B5A54704783
:10248000264801F00F01014401F8042C704724494B
:102490000A6860F30A2240F2FA5060F31F420A60B1
:1024A000704770B51E4C2368C3F302230124C3F1A7
:1024B0000705052D2FBF0F26C3F1070604FA06F600
:1024C000761E1D1D072D34BF0023DB1E31409940B1
:1024D00004FA03F3BDE870405B1E1A401143C9E7DC
:1024E000010007D4012200F01F010E4B8A40400971
:1024F00043F820207047401EB0F1807F01D30120B7
:10250000704709494860F0220848027000238B6038
:1025100007220A600020704700E400E018ED00E0A8
:102520000CED00E000E100E010E000E023ED00E051
:102530004018491C1CBFB1F1010100F8012DF9D16F
:10254000704700002DE9F84F0022674CDFF89C81AE
:102550004FF00F0901230F6893401F409F4240F046
:10256000B8804FEA420C032505FA0CF54E686FEA75
:10257000050E06F00305012D1CBF06F00306022E12
:1025800010D18568CE680EEA050506FA0CF63543CB
:102590008560456825EA03034D68C5F3001595403D
:1025A0002B43436093000D7905F00305032D1ED0E6
:1025B000C5688E680EEA050506FA0CF63543C56057
:1025C0000D7905F00305022D11D1D50800EB850525
:1025D00003F01C06D5F820B009FA06FA2BEA0A0B1C
:1025E000D1F810A00AFA06F646EA0B062E62056834
:1025F0000EEA05060D7905F0030505FA0CF545EA26
:10260000060CC0F800C04D6815F4403F61D04FF093
:10261000000ECDF800E04FEA920CD8F8005045F4D7
:102620008045C8F8005003F00C03D8F800E00EF421
:10263000804ECDF800E009FA03F6009DDFF8B0E027
:102640005EF82C50B5432B4EB04208BF4FF0000E41
:1026500018D0294EB04208BF4FF0010E12D0274EBD
:10266000B04208BF4FF0020E0CD0254EB04208BF5A
:102670004FF0030E06D0234EB0420CBF4FF0040EB5
:102680004FF0070E0EFA03F3DFF864E02B434EF829
:102690002C30FE43A3684D683340ED0248BF3B43F6
:1026A000A360E3684D683340AD0248BF3B43E3603D
:1026B00063684D683340AD0348BF3B4363602368A4
:1026C00006EA030C4B68DB0348BF47EA0C0CC4F86E
:1026D00000C0521C0F2A7FF63DAFBDE8F18F02B952
:1026E0000904816170470000003C01404438024009
:1026F0000838014000000240000402400008024087
:10270000000C02400010024038B5040001D1012045
:1027100032BD04F14005687808B900F009F800F00E
:102720000CF800F022F8FFE7486100F010F832BD25
:10273000002129702046FFF743BE242068702168DD
:10274000C86820F40050C860204600F0D9BA21685B
:10275000C86840F40050C8606A6020216970202079
:10276000A87000216163002070472168086920F487
:102770009040086100222168486920F02A007047D3
:102780002DE9FC4106460D4696F8410020281446E6
:102790001F4641D10DB1200001D101203DE00021B3
:1027A0007164212086F84100FFF75EFEB484804604
:1027B000F484B068B0F5805F04BF306900281ABFA8
:1027C0002C460025002412E000228021304600F033
:1027D000ADF9E0B93068002C12BF14F8011B35F8D0
:1027E000021BC1F308014160F18C481EF08443468E
:1027F000F08C00970028E7D100224021304600F0FD
:1028000095F920B9202086F84100002005E020201D
:1028100086F84100032000E00220BDE8F68110B5F3
:1028200000F130039C7C202C0AD109B1140001D1A5
:10283000012010BD00241C60BDE8104000F0B3B9B9
:10284000022010BDF8B504462268136811460846F8
:10285000CD68466913F00F0F03F0200105F020004A
:1028600007D1002918BF00285BD02046BDE8F24000
:10287000EAE1F70702D415F4907F52D0DA0705D5C4
:10288000ED0503D5626C42F0010262645D0705D577
:10289000F20703D5656C45F0020565649A0705D516
:1028A000F50703D5626C42F0040262641A0706D58C
:1028B00008B9F20703D5636C43F008036364626CE4
:1028C000002A2DD000291EBF0028204600F0BCF9A8
:1028D00020684069626C110701D440061BD5204670
:1028E00000F07CF92168486941060FD500F001F934
:1028F00060B10FF245310165E06B00F0ABFA0028E2
:102900000ED0E06B016DBDE8F44008472046BDE8FD
:10291000F24000F0B9BA204600F0B6FA0020606438
:10292000F1BD206B012804F1410140F08B80D806F5
:1029300000D5EE0640F186800023009312680092D5
:1029400023685A680092009B2268506942063DD570
:10295000E26B1068406880B20028E1D0A38D9842F5
:10296000DEDAE085D069B0F5807F27D0226802F1F9
:102970000C0555E8002F206800F10C0322F480724A
:1029800000F09FF8F2D100F0A0F8520800F1140313
:10299000520000F096F8F6D100F097F800F1140319
:1029A00022F0400200F08DF8F6D12020487000217E
:1029B000216300F091F8E06B00F00EFA02206063F2
:1029C000A18DE08D091A89B2204637E0A38DE28DF2
:1029D000E08D9B1A00281CBF98B2002870D02246B8
:1029E000156805F10C0454E8004F0C3524F490747C
:1029F00045E800400028F3D1146804F1140656E8B5
:102A0000004F1068640800F11405640045E80040B8
:102A10000028F1D12020487000211163146804F1CE
:102A20000C0151E8001F0C3421F0100144E80010A3
:102A30000028F3D10220506399B21046BDE8F4405B
:102A400000F023BA1A062BD5280629D509782129A2
:102A500036D1A068B0F5805F04BF2069002809D195
:102A6000226A21681088C0F308004860206A811C2F
:102A7000216205E0216A481C2062226809785160C1
:102A8000E08C401EE08480B2D0B92068C16821F09B
:102A90008001C1602168C86840F04000C860F1BD95
:102AA00058060DD56A060BD52068C26822F0400290
:102AB000C260204620220A70BDE8F24000F0E6B96C
:102AC000F1BD43E8002000287047226802F1140598
:102AD00055E8002F20687047226802F10C0151E888
:102AE000001F0C3221F0100142E800100028F3D141
:102AF0007047226802F1140353E8001F143221F0DA
:102B0000400142E800100028F3D1E06B704722F04A
:102B1000100243E8002100297047026802F10C040A
:102B200054E8002F016801F10C0370472DE9FC41C6
:102B3000089C05460E4690461F46296808683040A6
:102B4000B0420CBF0121002141452AD114F1010FEF
:102B5000F3D0FFF789FCC01B844200D314B90320D3
:102B6000BDE8F6812968CA685007E6D5802E18BFEF
:102B7000402EE2D00B461A681007DED500230093E2
:102B80002C6822680092496800910098284600F05D
:102B900025F805F140000822426000210170012063
:102BA000DEE70020DCE781628285C2850021416486
:102BB000222280F84220016921B10268D16841F4E3
:102BC0008071D1600268516941F001015161016871
:102BD000C86840F02000C86000207047036803F117
:102BE0000C0252E8002F0C3322F4907243E80021CB
:102BF0000029F3D1036803F1140252E8002F5208B0
:102C00001433520043E800210029F3D1016B01295C
:102C10000BD1036803F10C0252E8002F0C3322F0B1
:102C2000100243E800210029F3D1202280F842203D
:102C30000021016370470000806B0022C2850021E3
:102C4000C18400F021B900001CB590F8421022297F
:102C500054D18168826AB1F5805F09D1016961B997
:102C600003685968C1F308011180826A911C0EE063
:102C7000002904BF0169002902D10368596803E0F3
:102C80000168496801F07F011170826A511C8162FC
:102C9000C18D491EC18589B271BB0268D16821F01E
:102CA0002001D16000230268D16821F48071D160D5
:102CB00002685169490849005161202280F8422088
:102CC0004363016B012915D10363FFF726FFFFF76B
:102CD0001EFFFAD101680A68D30607D500220092C8
:102CE0000B680093046862680092009B818D00F07D
:102CF000CCF801E000F0E2F8002016BD022016BD7D
:102D000070B5064632681169F06821F440510143FC
:102D10001161D3682748B168034030690B4371697A
:102D20000343F0690B430343D3605169B06921F455
:102D300040710143516120498A421CBF1F488242B1
:102D400002D100F0C5FA01E000F0BAFA7268356805
:102D5000F6691921B6F5004FA1FB00016FF063047D
:102D600012D1D30F5200FEF7D1FE00F029F8E40093
:102D700032346420B4FBF0F0420002F4F87202EB4B
:102D8000011200F0070010E0930F9200FEF7BEFE64
:102D900000F016F8240132346420B4FBF0F000F0A7
:102DA000F00202EB011200F00F008018A86070BD65
:102DB00000000000F369FFFF001001400014014013
:102DC0006421B0FBF1F104FB01047047216808683D
:102DD0004008400008607047F8B5044604F1340527
:102DE0006E6AFFF741FB07466878022805D080210C
:102DF0002962002028700120F2BD2168086820F0B7
:102E000016000860216800F037F804BF68690028E0
:102E100004D02168086820F008000860FFF7D6FF9A
:102E200022681168C8070CD5FFF71EFBC01B0628D7
:102E3000F6D3202028620321697000202870032027
:102E4000F2BDA86A3F218140B16000200121697074
:102E50002870F2BD90F83520022A03D08021416508
:102E600001207047052180F8351001680868400886
:102E70004000086000207047486920F080004861E9
:102E8000E8680028704700007047704770470000EE
:102E90000EB418B5A0B0024623AB7821684600F006
:102EA0002FFA04464FF4FA73A2B26946A148FFF71D
:102EB00067FC204621B010BC5DF810FB00689E49FD
:102EC000884200D0704738B59C4B9D499D4C0020EE
:102ED00098700A78187820B901251D7058702270F2
:102EE00001E0587822545878401CC4B2FA2C03DB15
:102EF00001220024DA701C7058700122181DBDE8F0
:102F00003840FFF78CBC00002DE9F041A0B000F084
:102F100015FA00F0D0F800F025F90020009000220A
:102F200089488A4C01688A4D41F0010101601821ED
:102F3000006800F00100009000982046FFF7CFFBEA
:102F4000082101910122002103910491029201A91B
:102F50002046FFF7F7FA012102911020002101908D
:102F600002220491039201A92046FFF7EBFA794867
:102F700068604FF48271A9600020E86000216861F8
:102F80002961A96129626962A962E9624FF400704E
:102F9000E8610A212963281DFEF74AFE08B100F006
:102FA000E6F8664C644860604FF4E131A1600020AF
:102FB000E060206160610C21E0612062A161201D60
:102FC000FFF7A2FB08B100F0D2F81021002202A8FE
:102FD000FFF7AEFA0F202866002140F2E7304FF0ED
:102FE0008042A86600910191EA656966E9666967B1
:102FF00005F15C0000F0BCF908B100F0B8F84FF43E
:103000008050029002A905F15C0000F0B1FA08B10D
:1030100000F0ADF8002000900190694605F15C00D9
:1030200000F092FB08B100F0A2F801224449454E9D
:1030300057A70FF27418201DFFF7F1FB05F15C0094
:1030400000F0A3F900F0BCFB00F0EAFB00213920FE
:1030500000F014FCC1B24048FFF71AFF00F075FC05
:1030600044A0FFF715FF002000F098FC2878002806
:10307000FCD0002129704046FEF740F882B241465C
:10308000002000F0CEFC7F226946002000F0F6FC14
:10309000010006D000220DF8012038466A46FFF7ED
:1030A000F7FEE0780028E1D00021E1703046617839
:1030B00000F03CFDDAE780B592B03021002206A88E
:1030C000FFF736FA00F04EF8002000900122234866
:1030D000016841F080510160006800F0805000906C
:1030E0000020009900901E48016841F440410160B1
:1030F000006800F440400090022000990992069078
:10310000102100220A910C9206A800F073FE08B16B
:1031100000F02DF80F2200210192029103910491F9
:10312000059101A800F046F808B100F020F813B0AE
:1031300000BD0000F002002000100140EC02002061
:1031400048000020480100203038024000000240C2
:103150004802002000300140F0430008403802409F
:10316000007000401421002201A8FFF7E1B972B6F7
:10317000FEE7000070696E67207465737420283163
:1031800039322E3136382E302E313939290D0A0098
:10319000526563656976656420256420627974658B
:1031A000733A2025730D0A0048656C6C6F205043FC
:1031B000210D0A002DE9F04104000F4654D0494E7C
:1031C000306800F00700B84202D200F073F84BD12B
:1031D0002168454D880712D5490703D5A86840F4F2
:1031E000E050A8602078010703D5A86840F460404B
:1031F000A860A968A06821F0F0010143A9602178C6
:10320000C80729D56068012802D129688A0305E02A
:10321000022818BF032803D129688A0103D423E0B8
:1032200029688A0720D5A968890840EA8100A86032
:10323000FFF71AF98046A868616800F00C00B0EB4F
:10324000810F09D0FFF710F9A0EB080041F2893196
:103250008842F0D303202BE0306800F0070087425B
:1032600004D200F027F801D0012021E020784207A5
:1032700005D5A968E06821F4E0510143A9602178EF
:103280000A0706D5A868216920F4604040EAC10019
:10329000A86000F039FFAA681449154BC2F3031265
:1032A000895CC84018601348006800F05DFF00208A
:1032B000BDE8F0813770316801F00701B94270470D
:1032C0000B480D4B00681A680C49C2F3822206E0D5
:1032D0000748094B00681A680849C2F34232895C02
:1032E000C8407047003C0240003802406C4400086F
:1032F0000C0000200800002008380240DC440008D0
:103300001CB584B00023039300290EBF01930190E4
:10331000491E02910024009405AB01A90648784497
:103320001630FCF73CFF019901B10C70002858BF22
:10333000039806B010BD00BF6BDDFFFF80B50B48E2
:10334000016841F400710160026842F48062026029
:10335000016841F4807101600320FFF798F80F20A5
:1033600000F002FFFEF7DCFF002002BD003C02403F
:1033700038B5040001D1012032BD00F053F818B96E
:1033800000F04CF8FFF700F834E090F83D10012908
:1033900001D001207047022180F83D100268D168F9
:1033A00041F00101D160DFF884200168914218BF2B
:1033B000B1F1804F0FD0DFF8783099421CBFDFF8B1
:1033C0007420914207D0DFF8703099421CBFDFF8BB
:1033D0006C20914206D1896801F00701062907D0C7
:1033E000026800E00A461168104641F001010160E0
:1033F0000020704702206870211D206800F017F936
:103400000121A9720120A870E97028716971A87161
:10341000E971287269726870002032BD002129703C
:103420002046704704F13C05687870470000014071
:103430000004004000080040000C00400040014033
:1034400070B504462068C5680669B20714D5A90797
:1034500012D56FF00202026101212177806910F01C
:10346000030F204602D000F09FFE03E000F09DFE17
:1034700000F07BF800202077710715D5680713D579
:1034800020686FF00401016102222277806910F444
:10349000407F204602D000F087FE03E000F085FE6A
:1034A00000F063F800202077310715D5280713D5E1
:1034B00020686FF00801016104222277C06910F0D2
:1034C000030F204602D000F06FFE03E000F06DFE17
:1034D00000F04BF800202077F10615D5E80613D54B
:1034E00020686FF01002026108212177C06910F492
:1034F000407F204602D000F057FE03E000F055FE6A
:1035000000F033F80020207706F0010205F00101F9
:103510000A4206D021686FF001020A61204600F0DD
:1035200045FE300608D52A0606D520686FF08001D2
:103530000161204600F03BFE700608D56A0606D5FC
:1035400020686FF040010161204600F031FEB006B6
:103550000AD5AA0608D521686FF020000861204628
:10356000BDE8704000F025BE70BD204600F022BED0
:1035700070B5044604F13C0600253078012801D1DD
:10358000022070BD01223270022070702368DFF8C3
:1035900028019A6802409A600868020018BF102843
:1035A00030D0202818BF30282CD0402826D05028D2
:1035B00019D060281BD0702806D0B0F5805F27D0C6
:1035C000B0F5005F07D022E000F02CF82168886891
:1035D00040F0770005E000F025F82168886840F4A5
:1035E0008040886014E000F019F850210BE0CA68B0
:1035F0004968206800F083F8602104E000F00EF8CC
:10360000402100E00146206800F08BF800E0012531
:103610000121717000203070284670BDCA68496869
:1036200020685BE0CB684A688968206881E0F0B573
:103630000368224C224F234A234DA04218BFB0F109
:10364000804F04D0A8421CBF9042B8420CD123F056
:1036500070064B683343A04218BFB0F1804F0ED0C4
:10366000A84218BF90420AD0B8421CBF174DA842CA
:1036700005D0174A90421CBF164DA84203D123F42F
:103680004072CB6813434A6923F0800313430360FD
:10369000A0428B68C3620A68826202D10A690E493D
:1036A0000A60012343610169CA0703D5016949081A
:1036B00049000161F0BD00008800FFFF00000140EB
:1036C000000C0040000800400004004000400140A1
:1036D00000440140004801403000014010B5036A39
:1036E000046A64086400046223F00A03846924F015
:1036F000F00444EA021484611943016210BD10B55C
:10370000036A046A24F01004046223F0A0038469AD
:1037100024F4704444EA0234846143EA01130362EE
:1037200010BD826822F07002114341F007018160F0
:10373000704710B5846824F47F442143114341EA63
:103740000321816010BD000070B500F13C031A78C0
:10375000012A01D1022070BD01241C7002225A707E
:1037600006687568B4680A6825F0700515437560C9
:1037700002681048824218BFB2F1804F0BD00C4D46
:10378000AA421CBF0C48824205D0084DAA421CBF69
:103790000A48824204D1486824F0800404439460BB
:1037A000012159700020187070BD0000000C00400D
:1037B00000040040000001400008004000400140BB
:1037C000A8210022DFF8D8054170C721C17082709E
:1037D000FF21017141718171C271A8214172827210
:1037E000C0230121A82203700372C17203744274C2
:1037F00040F2F2310023172281818374C2748182E6
:1038000070470A4601466423DFF89805FEF7B8BF03
:10381000002200E001221021DFF88C05FEF75FBFD7
:1038200010B5DFF88445002208212046FEF757FF37
:10383000322000F0C1FC012208212046FEF74FFF94
:10384000BDE81040FA2000F0B7BC01B582B04FF0DF
:10385000FF300090012301AA02A9DFF85005FEF70E
:1038600087FB9DF804000EBDF8B500F027F800F0C6
:103870003DF800F035F8FEF739FA2EE038B5054688
:103880000C46FFF7C5FF290A8DF800108DF801508E
:103890008DF802404FF0FF3303226946DFF80C0534
:1038A000FEF724FAFF20FFF7D0FF0446FFF7B2FF30
:1038B000204632BDF8B500F001F808E007460C4696
:1038C00015461E46A4E7F8B5FFF7F8FFE40000F040
:1038D0000DF800F005F8FEF7AEFAFFF79BFFF1BD1B
:1038E0004FF0FF333246294620467047390A8DF89B
:1038F00002408DF800108DF801704FF0FF33DFF8B3
:10390000AC44032269462046FEF7F0B937B50546B8
:103910000C46FFF77DFF290A8DF802408DF8001054
:103920008DF801504FF0FF33DFF8804403226946E1
:103930002046FEF7DBF94FF0FF33012202A92046B3
:10394000FEF7D4F9FFF766FF37BD10B506230FF277
:103950009C4204210920FFF787FFDFF84444042339
:10396000224604210F20FFF77FFF042304F1080201
:1039700004210120FFF778FF221DBDE81040042339
:103980000421052070E710B54401641C102200F0EA
:1039900072F800F06DF80028FBD110BD3EB5054669
:1039A00001220C214001FFF7B1FF0DF10A000021B7
:1039B00001806D0102230DF10A020C21281DFFF781
:1039C00053FFDFF8DC43042304F110020C2105F15E
:1039D0000C00FFF749FFA18A8DF809100A0A8DF83B
:1039E0000820022302AA0C2105F11000FFF73CFF7A
:1039F0006D1C01220C212846FFF788FF052000F0EE
:103A0000DBFB04220C212846FFF780FFA18AE07C23
:103A1000A37C627C01910090217CE548FFF738FA95
:103A200037BD2DE9F84505466C018A46174604F175
:103A3000240800F05DF89DF800009DF8016046EA5A
:103A40000026C6F30A0000EBC5203B46524614216F
:103A500080B2FFF709FFF11900F04FF8641C202233
:103A600000F009F800F004F80028FBD1BDE8F1856A
:103A70000C21204602E70C21204647E72DE9F845B6
:103A800005468A4616466C0102230DF10202082102
:103A900004F12600FFF70EFF9DF802109DF80300C9
:103AA00050EA012022D0864288BF064604F1280849
:103AB00000F01EF89DF800009DF8017047EA00270D
:103AC000C7F30A0000EB852033465246182180B226
:103AD000FFF7F0FEB91900F010F8641C4022FFF760
:103AE000CAFFFFF7C5FF0028FBD13046BDE8F285CD
:103AF00002236A4608214046DCE60804000E8DF8E1
:103B000000008DF8011002236A460C214046ABE606
:103B100030B502460020002403E0E3B2641CD35C0D
:103B2000C018E5B28D42F8D3C0B230BD38B58AB006
:103B30000446122901BF20785328627C452A05D10A
:103B400010212046FFF7E4FF217C884240F02581C8
:103B50006078934D10286ED1A0788DF8080002A8E7
:103B6000E178417008AB227982706179C170A079E7
:103B70008DF8040001A8E1794170227A8270617A9F
:103B8000C170A07A8DF80000E17A8DF80110227BD7
:103B90008DF80220617B8DF80310A07B94F80F4014
:103BA00044EA00248FA0D0E90021C3E900210623C4
:103BB00008AA04210920FFF757FE04236A460421BE
:103BC0000120FFF751FE042301AA04210520FFF77D
:103BD0004BFE042302AA04210F20FFF745FE042216
:103BE00002A9284600F0FCFA042201A9281D00F0D1
:103BF000F7FA0422694605F1080000F0F1FAAC81F9
:103C000000F0E3F803AD5320112100F0E3F800F0D9
:103C1000E7FA042201A90DF1120000F0E1FA0422F2
:103C200069460DF1160000F0DBFA00F0C3F800F071
:103C3000C7F803A863E022282DD1042302AA00219B
:103C40000F20FFF740FE042301AA00210520FFF703
:103C50003AFE04236A4600210120FFF734FEAC89B6
:103C600000F0B3F803AD5320212100F0B3F800F0C9
:103C7000B7FA042201A90DF1120000F0B1FA0422F2
:103C800069460DF1160000F0ABFA00F093F800F071
:103C900097F803A87FE012283DD1A0788DF80000A6
:103CA000E1788DF8011022798DF8022004226179E3
:103CB0008DF803106946A07BE47B44EA002405F1FB
:103CC000100000F08DFAAC821221002201A8FEF74C
:103CD0002FFC01AD532013218DF8040069700422DC
:103CE00069460DF1060000F07BFA200AA873EC7318
:103CF000102101A8FFF70CFF00F062F801A8FFF700
:103D000080FD0020FFF73FFE0A2000F055FA00205A
:103D1000FFF744FE41E020283FD101A90020ADF883
:103D200000000860042301AA0C210C20FFF7C2FD4B
:103D300002236A460C211020FFF7BCFD9DF800000D
:103D40009DF8014044EA00241221002202A8FEF757
:103D5000EFFB02AD532023218DF808006970042287
:103D600001A90DF10A0000F03BFA042200210DF137
:103D70000E0000F03BFA042200210DF1120000F0C9
:103D800035FA200AA873EC73102102A8FFF7C0FED1
:103D900000F016F802A8FFF734FD0BB030BD0000AC
:103DA00038030020F0020020000002404C020020F6
:103DB00098430008200AA873EC73102103A8A7E613
:103DC000287412214520687470471221002203A82C
:103DD000FEF7AEBB8DF80C006970042202A90DF14C
:103DE0000E0070470008DC00000100000008DC0144
:103DF000020300002DE9F843040016D02078DFF814
:103E0000F862C10713D5B06800F00C00042807D091
:103E1000B06800F00C0008283DD1706841023AD526
:103E20003068810303D56068002800F05F81207846
:103E3000B24F810719D5B06810F00C0F07D0B068E9
:103E400000F00C0008285CD17068410259D4306839
:103E5000810703D5E068012840F048813168206976
:103E600021F0F80141EAC00131602178080773D5DB
:103E70006069A349002862D001220A60FEF7F4FAC3
:103E80000546706F810767D4FEF7EEFA401B0228E3
:103E9000F7D903202DE16068B0F5803F03D1306889
:103EA00040F4803012E0B0F5A02F08D1306840F423
:103EB00080203060316841F48031316007E0326841
:103EC00022F480323260306820F4802030606068F4
:103ED00058B1FEF7C9FA054631688803A7D4FEF742
:103EE000C3FA401B6528F7D3D3E7FEF7BDFA0546B2
:103EF000316888039BD5FEF7B7FA401B6528F7D3D6
:103F0000C7E7E06868B101213960FEF7ADFA054600
:103F100030688107A2D4FEF7A7FA401B0228F7D920
:103F2000B7E700223A60FEF79FFA05463168880736
:103F30009BD5FEF799FA401B0228F7D9A9E708603C
:103F4000FEF792FA0546716F880705D5FEF78CFAE1
:103F5000401B0228F7D99CE72078410760D5306CD8
:103F60000025C1000BD4002000900125316C41F0E8
:103F700080513164306C00F0805000900098DFF880
:103F80008481D8F80000C10513D4D8F8000040F4AB
:103F90008070C8F80000FEF767FA8146D8F8001074
:103FA000C80506D4FEF760FAA0EB09000228F5D98F
:103FB0006FE7A068012805D00528306F06D140F0D2
:103FC00004003067306F40F0010005E04008400019
:103FD0003067306F20F00400306741F28938A06804
:103FE00060B1FEF741FA8146316F880713D4FEF7BE
:103FF0003BFAA0EB09004045F6D34AE7FEF734FA56
:104000008146316F880706D5FEF72EFAA0EB09002E
:104010004045F6D33DE71DB1306C20F08050306450
:10402000A069002864D0B16801F00C0108293AD0D9
:1040300002282AD100203866FEF716FA05463068B5
:10404000810105D5FEF710FA401B0228F7D920E7B9
:10405000E269206A616A0243A06A400842EA81126A
:10406000401E42EA0042E06A42EA006272600121B8
:104070003966FEF7F9F904463068810138D4FEF755
:10408000F3F9001B0228F7D903E700203866FEF792
:10409000EBF90446306881012AD5FEF7E5F9001BEB
:1040A0000228F7D9F5E6012820D07068E16900F40C
:1040B00080028A4202BF00F03F02216A8A4201BFA9
:1040C00047F6C0720240616AB2EB811F0ED1A16A4D
:1040D00000F4403202F580324908B2EB014F02BFD2
:1040E00000F07060E16AB0EB016F01D0012000E0E8
:1040F0000020BDE8F28300BF0038024000004742C4
:10410000800E47420070004030B5144C606800F0EB
:104110000C00042802D0082802D01DE0104830BD51
:10412000226821680023480202F03F0204D5256876
:104130000B48C5F3881103E021680A48C1F38811D0
:10414000A0FB0101FDF7E2FC2168C1F30141491C1C
:104150004900B0FBF1F030BD024830BD04380240E8
:1041600040787D010024F40038B50D4D0D4A2978C2
:1041700004464FF47A731068B3FBF1F1B0FBF1F031
:10418000FEF7B9F950B9102C08D2002221464FF0A1
:10419000FF30FEF786F9AC60002032BD012032BD51
:1041A000000000200C0000207047704770477047E7
:1041B000704770477047000038B50546FEF754F960
:1041C00015F1010F044602D0044908782D18FEF7B6
:1041D0004BF9001BA842FAD331BD00BF00000020FC
:1041E00010B50446FCF7C0FF204610BD10B50446CC
:1041F00010460A4601462046FEF79AF9204610BDB1
:10420000FEE7FEE7FEE7FEE7FEE770477047704710
:1042100000F07AB870B52F4B2F491A68521C052050
:10422000B2FBF0F000EB80000124101A0C7002D1F8
:104230002A4C012121700A20B2FBF0F00A2101FB77
:10424000102010B9264C012525706420B2FBF0F037
:10425000642101FB102010B9224C01252570FA20A1
:10426000B2FBF0F0FA2101FB102010B91E4C012521
:1042700025704FF4FA70B2FBF0F04FF4FA7101FBC5
:10428000102010B9194D01242C704FF47A70B2FB34
:10429000F0F04FF47A7101FB102018B91449012095
:1042A000087000221349087858B113480478641C38
:1042B000E5B2052D04DB00260E7001250F490D70B7
:1042C00004701A60BDE870400D48FFF7B9B80D489A
:1042D000FEF7B8BA5003002058030020590300200D
:1042E0005A0300205B0300205C0300205D030020D4
:1042F00048020020EC020020EE020020EF02002025
:10430000A4020020F00200200248426801785118FF
:104310004160704700000020010000000000000024
:10432000100000000024F4002214000822140008E9
:104330002214000822140008221400082214000885
:1043400022140008FFFFFFFFFFFFFFFF0E1200080F
:104350002214000822140008FFFFFFFFFFFF0000E7
:1043600030B4002412E050F8043BDA0744BF4B4459
:104370005B1E091F042943F8044BFAD21A468D0725
:1043800044BF1C80921CCB0748BF147050F8041B1C
:104390000029E8D130BC704754435020436C696514
:1043A0006E7420636F6E6E656374696E6720746FE0
:1043B0002025642E25642E25642E25643A25640D5F
:1043C0000A00000010B5034A7A440832024C7C44CB
:1043D000A41D03E0640000008400000004E01168F4
:1043E000101D114488470246A242F8D110BD0000BA
:1043F00057353530302056657273696F6E205265BF
:10440000676973746572203D203078253032580D0D
:104410000A0000004EF68851CEF20001086840F410
:1044200070000860BFF34F8FBFF36F8F4FF00170C4
:10443000E1EE100A7047000029FFFFFF180300009B
:1044400048000020000000001BCCFFFF48000000D7
:10445000C8FEFFFF000000200000000002490868BD
:1044600040F470000860704788ED00E00000000034
:1044700000000000010203040607080900F00DF81F
:10448000002801D0FFF79EFFAFF300800020AFF3BC
:104490000080FEF739FD00F002F80120704700F0BF
:1044A00001B8000007463846FDF7B8FBFBE70000FF
:1044B0000548014603B4684680F30988AFF30080DD
:1044C000FFF7A8FFFFF7DAFFA5EDF5FE01488047EB
:1044D000014800475D440008B144000800000000A6
:1044E00001020304FFF7FEBFFFF7FEBFFFF7FEBFA9
:1044F000FFF7FEBFFFF7FEBFFFF7FEBFFFF7FEBFF0
:10450000FFF7FEBFFFF7FEBFFFF7FEBFFFF7FEBFDF
:10451000FFF7FEBFFFF7FEBFFFF7FEBFFFF7FEBFCF
:10452000FFF7FEBFFFF7FEBFFFF7FEBFFFF7FEBFBF
:10453000FFF7FEBFFFF7FEBFFFF7FEBFFFF7FEBFAF
:10454000FFF7FEBFFFF7FEBFFFF7FEBFFFF7FEBF9F
:10455000FFF7FEBFFFF7FEBFFFF7FEBFFFF7FEBF8F
:10456000FFF7FEBFFFF7FEBFFFF7FEBFFFF7FEBF7F
:10457000FFF7FEBFFFF7FEBFFFF7FEBFFFF7FEBF6F
:10458000FFF7FEBFFFF7FEBFFFF7FEBFFFF7FEBF5F
:10459000FFF7FEBFFFF7FEBFFFF7FEBFFFF7FEBF4F
:1045A000FFF7FEBFFFF7FEBFFFF7FEBFFFF7FEBF3F
:1045B000FFF7FEBFFFF7FEBFFFF7FEBFFFF7FEBF2F
:04000005080044B1FA
:00000001FF
